:020000040000FA
:100000000C9462000C942F040C9408040C948A0045
:100010000C948A000C948A000C948A000C948A0038
:100020000C948A000C948A000C948A000C948A0028
:100030000C948A000C948A000C948A000C948A0018
:100040000C94BE030C948A000C948C030C946603ED
:100050000C948A000C948A000C948A000C948A00F8
:100060000C948A000C948A000000000024002700F1
:100070002A0000000000250028002B0000000000DE
:1000800023002600290004040404040404040202DA
:100090000202020203030303030301020408102007
:1000A0004080010204081020010204081020000012
:1000B0000008000201000003040700000000000027
:1000C0000000F00511241FBECFEFD8E0DEBFCDBF8A
:1000D00011E0A0E0B1E0EEE8FCE002C005900D9276
:1000E000AC31B107D9F721E0ACE1B1E001C01D921C
:1000F000AB3DB207E1F710E0C2E6D0E004C02197C3
:10010000FE010E943F06C136D107C9F70E9456047E
:100110000C9445060C9400008230B8F4E82FF0E00F
:10012000EE0FFF1FE050FF4F71836083813039F085
:1001300080916900836080936900E89A08958091B6
:1001400069008C6080936900E99A0895AF92BF922C
:10015000CF92DF92EF92FF920F931F93CF93DF9393
:100160006C017B018B01040F151FEB015E01AE18C2
:10017000BF08C017D10759F06991D601ED91FC91E4
:100180000190F081E02DC6010995892B79F7C50111
:10019000DF91CF911F910F91FF90EF90DF90CF9063
:1001A000BF90AF900895FC01538D448D252F30E012
:1001B000842F90E0821B930B541710F0CF96089574
:1001C00001970895FC01918D828D981761F0A28DA1
:1001D000AE0FBF2FB11D5D968C91928D9F5F9F7367
:1001E000928F90E008958FEF9FEF0895FC01918D1D
:1001F000828D981731F0828DE80FF11D858D90E08A
:1002000008958FEF9FEF0895FC01918D228D892F26
:1002100090E0805C9F4F821B91098F73992708950E
:100220008EE391E00E94040121E0892B09F420E093
:10023000822F089580E090E0892B29F00E94100120
:1002400081110C9400000895FC01A48DA80FB92F12
:10025000B11DA35ABF4F2C91848D90E001968F73EE
:100260009927848FA689B7892C93A089B1898C910D
:10027000837080648C93938D848D981306C002885C
:10028000F389E02D80818F7D80830895EF92FF9226
:100290000F931F93CF93DF93EC0181E0888F9B8DA9
:1002A0008C8D98131AC0E889F989808185FF15C063
:1002B0009FB7F894EE89FF896083E889F989808186
:1002C0008370806480839FBF81E090E0DF91CF9155
:1002D0001F910F91FF90EF900895F62E0B8D10E077
:1002E0000F5F1F4F0F731127E02E8C8D8E110CC0E6
:1002F0000FB607FCFACFE889F989808185FFF5CF31
:10030000CE010E942401F1CFEB8DEC0FFD2FF11DEA
:10031000E35AFF4FF0829FB7F8940B8FEA89FB896D
:1003200080818062CFCFCF93DF93EC01888D8823CB
:10033000B9F0AA89BB89E889F9898C9185FD03C048
:10034000808186FD0DC00FB607FCF7CF8C9185FF2D
:10035000F2CF808185FFEDCFCE010E942401E9CF4D
:10036000DF91CF910895833081F028F4813099F0A6
:100370008230A9F008958730A9F08830C9F0843020
:10038000B1F4809180008F7D03C0809180008F77D1
:1003900080938000089584B58F7784BD089584B5D7
:1003A0008F7DFBCF8091B0008F778093B000089550
:1003B0008091B0008F7DF9CFCF93DF93282F30E06D
:1003C000F901E255FF4F8491F901E656FF4FD491B0
:1003D000F901EA57FF4FC491CC23A1F081110E948B
:1003E000B301EC2FF0E0EE0FFF1FE458FF4FA59193
:1003F000B491EC91ED2381E090E009F480E0DF918D
:10040000CF91089580E090E0FACF1F93CF93DF93D0
:10041000282F30E0F901E255FF4F8491F901E656AB
:10042000FF4FD491F901EA57FF4FC491CC23A9F0B3
:10043000162F81110E94B301EC2FF0E0EE0FFF1F89
:10044000EE58FF4FA591B4918FB7F894EC9111112C
:1004500008C0D095DE23DC938FBFDF91CF911F9131
:100460000895DE2BF8CFCF93DF9390E0FC01E656A2
:10047000FF4F24918A579F4FFC0184918823C9F034
:1004800090E0880F991FFC01E859FF4FA591B491A6
:10049000FC01EE58FF4FC591D49161110DC09FB77B
:1004A000F8948C91209582238C938881282328832B
:1004B0009FBFDF91CF910895623051F49FB7F894B8
:1004C0003C91822F809583238C93E8812E2BEFCF54
:1004D0008FB7F894EC912E2B2C938FBFEACF2FB7C8
:1004E000F8946091250170912601809127019091E7
:1004F00028012FBF08950895809132019091330112
:10050000A0913401B091350180399140A105B10528
:1005100041F4109232011092330110923401109282
:100520003501089583E00E94DC01892BA9F48091B4
:10053000320190913301A0913401B09135010196BF
:10054000A11DB11D8093320190933301A09334011A
:10055000B09335010C947C0280913201909133016B
:10056000A0913401B09135010197A109B109EACFF9
:1005700082E00E94DC01892BA9F4809132019091E4
:100580003301A0913401B09135010197A109B1095E
:100590008093320190933301A0933401B0933501DD
:1005A0000C947C028091320190913301A09134012E
:1005B000B09135010196A11DB11DEACFFC0101905A
:1005C0000020E9F73197AF01481B590BBC018EE3BE
:1005D00091E00C94A6008F929F92AF92BF92CF921F
:1005E000DF92EF92FF920F931F93CF93DF93CDB7DC
:1005F000DEB7A1970FB6F894DEBF0FBECDBF6B017B
:100600007C01F7FE41C06DE28EE391E00E9446015D
:100610008C0122273327A9012C193D094E095F09B6
:1006200019A2CE0181967C019AE0892E912CA12CF1
:10063000B12CCA01B901A50194010E941D06605D9B
:10064000F70162937F01211531054105510589F7B5
:1006500090E080E0309719F0CF010E94DE02800F19
:10066000911FA1960FB6F894DEBF0FBECDBFDF91EC
:10067000CF911F910F91FF90EF90DF90CF90BF909F
:10068000AF909F908F900895AC019B0119A28E01AD
:100690000F5D1F4F8AE0C82ED12CE12CF12CCA012E
:1006A000B901A70196010E941D06605DF8016293E1
:1006B0008F01211531054105510589F790E080E052
:1006C000309779F2CF010E94DE02CBCF1F920F92BA
:1006D0000FB60F9211242F933F934F935F936F9315
:1006E0007F938F939F93AF93BF93EF93FF938EE38B
:1006F00091E00E942401FF91EF91BF91AF919F91F2
:100700008F917F916F915F914F913F912F910F90BA
:100710000FBE0F901F9018951F920F920FB60F9259
:1007200011242F938F939F93EF93FF93E0914E01AA
:10073000F0914F018081E0915401F091550182FDCB
:100740001BC09081809157018F5F8F73209158015A
:10075000821741F0E0915701F0E0E25CFE4F958F87
:1007600080935701FF91EF919F918F912F910F905F
:100770000FBE0F901F9018958081F4CF1F920F929B
:100780000FB60F9211242F933F938F939F93AF93A4
:10079000BF938091250190912601A0912701B091EE
:1007A00028013091240123E0230F2D3758F50196BD
:1007B000A11DB11D20932401809325019093260152
:1007C000A0932701B09328018091200190912101ED
:1007D000A0912201B09123010196A11DB11D80932A
:1007E000200190932101A0932201B0932301BF9196
:1007F000AF919F918F913F912F910F900FBE0F90CE
:100800001F90189526E8230F0296A11DB11DD2CF87
:100810001F920F920FB60F9211242F933F934F9375
:100820005F936F937F938F939F93AF93BF93EF9358
:10083000FF93E0910201F09103010995FF91EF917F
:10084000BF91AF919F918F917F916F915F914F91E8
:100850003F912F910F900FBE0F901F9018951F92F0
:100860000F920FB60F9211242F933F934F935F93E4
:100870006F937F938F939F93AF93BF93EF93FF9368
:10088000E0910001F09101010995FF91EF91BF9175
:10089000AF919F918F917F916F915F914F913F9118
:1008A0002F910F900FBE0F901F901895789484B5DC
:1008B000826084BD84B5816084BD85B5826085BD5C
:1008C00085B5816085BD80916E00816080936E00EA
:1008D00010928100809181008260809381008091DC
:1008E000810081608093810080918000816080938D
:1008F00080008091B10084608093B1008091B0004D
:1009000081608093B00080917A00846080937A0047
:1009100080917A00826080937A0080917A00816071
:1009200080937A0080917A00806880937A00109298
:10093000C10060E086E00E94330261E085E00E9431
:10094000330260E084E00E94330261E087E00E94AD
:10095000330261E088E00E94330262E082E00E949C
:10096000330262E083E00E94330262E972E080E0D9
:100970000E948C0068EB72E081E00E948C00E091A4
:100980004E01F0914F0182E08083E0914A01F091A5
:100990004B011082E0914C01F0914D0183E3808383
:1009A00010925601E0915201F091530186E080834C
:1009B000E0915001F0915101808180618083E0914C
:1009C0005001F0915101808188608083E091500155
:1009D000F0915101808180688083E0915001F09115
:1009E000510180818F7D808300E010E08EE391E0F3
:1009F0000E940401181619060CF4D9C010923D018A
:100A000010923C01D0E0C0E086E00E94DC019093AF
:100A10003B0180933A012197F9F461E085E00E945F
:100A2000050261E087E00E9405020E946F026B01EF
:100A30007C010E946F026C197D098E099F09683242
:100A4000710581059105A8F360E085E00E9405022B
:100A500060E087E00E94050284E00E94DC01EC0176
:100A600020912E0130912F018217930709F14091B7
:100A70002D0180913001909131018C0F9D1F909339
:100A8000310180933001411113C0232B89F461E0BF
:100A900088E00E94050281E080932D010E946F0290
:100AA0006093290170932A0180932B0190932C016C
:100AB000D0932F01C0932E0180912D018823C9F07E
:100AC0000E946F02C0902901D0902A01E0902B0172
:100AD000F0902C016C197D098E099F096A3071050F
:100AE0008105910530F060E088E00E9405021092D7
:100AF0002D010E946F02C0903601D0903701E09026
:100B00003801F09039019B01AC012C193D094E09C7
:100B10005F0969017A013BE0C316D104E104F104E5
:100B2000D0F1609336017093370180933801909330
:100B3000390186E191E00E94DE02609132017091FC
:100B4000330180913401909135010E94EB0286E1DE
:100B500091E00E94DE026091300170913101072E18
:100B6000000C880B990B0E94EB0286E191E00E9439
:100B7000DE0260913A0170913B01072E000C880B58
:100B8000990B0E94EB0286E191E00E94DE0288E16F
:100B900091E00E94DE020115110509F427CF0E94A1
:100BA0001001882309F422CF0E9400001FCF8EE39A
:100BB00091E00E94E200EC0190933D0180933C01A2
:100BC000029709F021CF109231011092300110925A
:100BD000320110923301109234011092350114CF7A
:100BE000EEE3F1E01382128288EE93E0A0E0B0E041
:100BF00084839583A683B78388E091E09183808383
:100C000085EC90E09587848784EC90E097878687D1
:100C100080EC90E0918B808B81EC90E0938B828BC9
:100C200082EC90E0958B848B86EC90E0978B868BA2
:100C3000118E128E138E148E0895A1E21A2EAA1B05
:100C4000BB1BFD010DC0AA1FBB1FEE1FFF1FA2177C
:100C5000B307E407F50720F0A21BB30BE40BF50B79
:100C6000661F771F881F991F1A9469F76095709502
:100C7000809590959B01AC01BD01CF010895EE0FC9
:100C8000FF1F0590F491E02D0994F894FFCF7B02AB
:100C90007B02000000004601A600D300930104017E
:0A0CA000E200F6005F000D0A0000FC
:107E0000112484B714BE81FFF0D085E080938100F7
:107E100082E08093C00088E18093C10086E0809377
:107E2000C20080E18093C4008EE0C9D0259A86E02C
:107E300020E33CEF91E0309385002093840096BBD3
:107E4000B09BFECF1D9AA8958150A9F7CC24DD24C4
:107E500088248394B5E0AB2EA1E19A2EF3E0BF2EE7
:107E6000A2D0813461F49FD0082FAFD0023811F036
:107E7000013811F484E001C083E08DD089C08234E0
:107E800011F484E103C0853419F485E0A6D080C0E4
:107E9000853579F488D0E82EFF2485D0082F10E0AE
:107EA000102F00270E291F29000F111F8ED06801E7
:107EB0006FC0863521F484E090D080E0DECF843638
:107EC00009F040C070D06FD0082F6DD080E0C81688
:107ED00080E7D80618F4F601B7BEE895C0E0D1E017
:107EE00062D089930C17E1F7F0E0CF16F0E7DF06D8
:107EF00018F0F601B7BEE89568D007B600FCFDCFD4
:107F0000A601A0E0B1E02C9130E011968C91119780
:107F100090E0982F8827822B932B1296FA010C0160
:107F200087BEE89511244E5F5F4FF1E0A038BF0790
:107F300051F7F601A7BEE89507B600FCFDCF97BE46
:107F4000E89526C08437B1F42ED02DD0F82E2BD052
:107F50003CD0F601EF2C8F010F5F1F4F84911BD097
:107F6000EA94F801C1F70894C11CD11CFA94CF0C13
:107F7000D11C0EC0853739F428D08EE10CD085E9AC
:107F80000AD08FE07ACF813511F488E018D01DD067
:107F900080E101D065CF982F8091C00085FFFCCF94
:107FA0009093C60008958091C00087FFFCCF809118
:107FB000C00084FD01C0A8958091C6000895E0E648
:107FC000F0E098E1908380830895EDDF803219F02E
:107FD00088E0F5DFFFCF84E1DECF1F93182FE3DFCA
:107FE0001150E9F7F2DF1F91089580E0E8DFEE27F6
:047FF000FF270994CA
:027FFE00040479
:00000001FF
